{
  "_format": "hh-sol-artifact-1",
  "contractName": "ERC721Base",
  "sourceName": "@thirdweb-dev/contracts/base/ERC721Base.sol",
  "abi": [
    {
      "inputs": [
        {
          "internalType": "address",
          "name": "_defaultAdmin",
          "type": "address"
        },
        {
          "internalType": "string",
          "name": "_name",
          "type": "string"
        },
        {
          "internalType": "string",
          "name": "_symbol",
          "type": "string"
        },
        {
          "internalType": "address",
          "name": "_royaltyRecipient",
          "type": "address"
        },
        {
          "internalType": "uint128",
          "name": "_royaltyBps",
          "type": "uint128"
        }
      ],
      "stateMutability": "nonpayable",
      "type": "constructor"
    },
    {
      "inputs": [],
      "name": "ApprovalCallerNotOwnerNorApproved",
      "type": "error"
    },
    {
      "inputs": [],
      "name": "ApprovalQueryForNonexistentToken",
      "type": "error"
    },
    {
      "inputs": [],
      "name": "ApprovalToCurrentOwner",
      "type": "error"
    },
    {
      "inputs": [],
      "name": "ApproveToCaller",
      "type": "error"
    },
    {
      "inputs": [],
      "name": "BalanceQueryForZeroAddress",
      "type": "error"
    },
    {
      "inputs": [],
      "name": "MintToZeroAddress",
      "type": "error"
    },
    {
      "inputs": [],
      "name": "MintZeroQuantity",
      "type": "error"
    },
    {
      "inputs": [],
      "name": "OwnerQueryForNonexistentToken",
      "type": "error"
    },
    {
      "inputs": [],
      "name": "TransferCallerNotOwnerNorApproved",
      "type": "error"
    },
    {
      "inputs": [],
      "name": "TransferFromIncorrectOwner",
      "type": "error"
    },
    {
      "inputs": [],
      "name": "TransferToNonERC721ReceiverImplementer",
      "type": "error"
    },
    {
      "inputs": [],
      "name": "TransferToZeroAddress",
      "type": "error"
    },
    {
      "inputs": [],
      "name": "URIQueryForNonexistentToken",
      "type": "error"
    },
    {
      "anonymous": false,
      "inputs": [
        {
          "indexed": true,
          "internalType": "address",
          "name": "owner",
          "type": "address"
        },
        {
          "indexed": true,
          "internalType": "address",
          "name": "approved",
          "type": "address"
        },
        {
          "indexed": true,
          "internalType": "uint256",
          "name": "tokenId",
          "type": "uint256"
        }
      ],
      "name": "Approval",
      "type": "event"
    },
    {
      "anonymous": false,
      "inputs": [
        {
          "indexed": true,
          "internalType": "address",
          "name": "owner",
          "type": "address"
        },
        {
          "indexed": true,
          "internalType": "address",
          "name": "operator",
          "type": "address"
        },
        {
          "indexed": false,
          "internalType": "bool",
          "name": "approved",
          "type": "bool"
        }
      ],
      "name": "ApprovalForAll",
      "type": "event"
    },
    {
      "anonymous": false,
      "inputs": [
        {
          "indexed": false,
          "internalType": "uint256",
          "name": "_fromTokenId",
          "type": "uint256"
        },
        {
          "indexed": false,
          "internalType": "uint256",
          "name": "_toTokenId",
          "type": "uint256"
        }
      ],
      "name": "BatchMetadataUpdate",
      "type": "event"
    },
    {
      "anonymous": false,
      "inputs": [
        {
          "indexed": false,
          "internalType": "string",
          "name": "prevURI",
          "type": "string"
        },
        {
          "indexed": false,
          "internalType": "string",
          "name": "newURI",
          "type": "string"
        }
      ],
      "name": "ContractURIUpdated",
      "type": "event"
    },
    {
      "anonymous": false,
      "inputs": [
        {
          "indexed": true,
          "internalType": "address",
          "name": "newRoyaltyRecipient",
          "type": "address"
        },
        {
          "indexed": false,
          "internalType": "uint256",
          "name": "newRoyaltyBps",
          "type": "uint256"
        }
      ],
      "name": "DefaultRoyalty",
      "type": "event"
    },
    {
      "anonymous": false,
      "inputs": [],
      "name": "MetadataFrozen",
      "type": "event"
    },
    {
      "anonymous": false,
      "inputs": [
        {
          "indexed": true,
          "internalType": "address",
          "name": "prevOwner",
          "type": "address"
        },
        {
          "indexed": true,
          "internalType": "address",
          "name": "newOwner",
          "type": "address"
        }
      ],
      "name": "OwnerUpdated",
      "type": "event"
    },
    {
      "anonymous": false,
      "inputs": [
        {
          "indexed": true,
          "internalType": "uint256",
          "name": "tokenId",
          "type": "uint256"
        },
        {
          "indexed": true,
          "internalType": "address",
          "name": "royaltyRecipient",
          "type": "address"
        },
        {
          "indexed": false,
          "internalType": "uint256",
          "name": "royaltyBps",
          "type": "uint256"
        }
      ],
      "name": "RoyaltyForToken",
      "type": "event"
    },
    {
      "anonymous": false,
      "inputs": [
        {
          "indexed": true,
          "internalType": "address",
          "name": "from",
          "type": "address"
        },
        {
          "indexed": true,
          "internalType": "address",
          "name": "to",
          "type": "address"
        },
        {
          "indexed": true,
          "internalType": "uint256",
          "name": "tokenId",
          "type": "uint256"
        }
      ],
      "name": "Transfer",
      "type": "event"
    },
    {
      "inputs": [
        {
          "internalType": "address",
          "name": "to",
          "type": "address"
        },
        {
          "internalType": "uint256",
          "name": "tokenId",
          "type": "uint256"
        }
      ],
      "name": "approve",
      "outputs": [],
      "stateMutability": "nonpayable",
      "type": "function"
    },
    {
      "inputs": [
        {
          "internalType": "address",
          "name": "owner",
          "type": "address"
        }
      ],
      "name": "balanceOf",
      "outputs": [
        {
          "internalType": "uint256",
          "name": "",
          "type": "uint256"
        }
      ],
      "stateMutability": "view",
      "type": "function"
    },
    {
      "inputs": [
        {
          "internalType": "uint256",
          "name": "",
          "type": "uint256"
        }
      ],
      "name": "batchFrozen",
      "outputs": [
        {
          "internalType": "bool",
          "name": "",
          "type": "bool"
        }
      ],
      "stateMutability": "view",
      "type": "function"
    },
    {
      "inputs": [
        {
          "internalType": "address",
          "name": "_to",
          "type": "address"
        },
        {
          "internalType": "uint256",
          "name": "_quantity",
          "type": "uint256"
        },
        {
          "internalType": "string",
          "name": "_baseURI",
          "type": "string"
        },
        {
          "internalType": "bytes",
          "name": "_data",
          "type": "bytes"
        }
      ],
      "name": "batchMintTo",
      "outputs": [],
      "stateMutability": "nonpayable",
      "type": "function"
    },
    {
      "inputs": [
        {
          "internalType": "uint256",
          "name": "_tokenId",
          "type": "uint256"
        }
      ],
      "name": "burn",
      "outputs": [],
      "stateMutability": "nonpayable",
      "type": "function"
    },
    {
      "inputs": [],
      "name": "contractURI",
      "outputs": [
        {
          "internalType": "string",
          "name": "",
          "type": "string"
        }
      ],
      "stateMutability": "view",
      "type": "function"
    },
    {
      "inputs": [
        {
          "internalType": "uint256",
          "name": "tokenId",
          "type": "uint256"
        }
      ],
      "name": "getApproved",
      "outputs": [
        {
          "internalType": "address",
          "name": "",
          "type": "address"
        }
      ],
      "stateMutability": "view",
      "type": "function"
    },
    {
      "inputs": [],
      "name": "getBaseURICount",
      "outputs": [
        {
          "internalType": "uint256",
          "name": "",
          "type": "uint256"
        }
      ],
      "stateMutability": "view",
      "type": "function"
    },
    {
      "inputs": [
        {
          "internalType": "uint256",
          "name": "_index",
          "type": "uint256"
        }
      ],
      "name": "getBatchIdAtIndex",
      "outputs": [
        {
          "internalType": "uint256",
          "name": "",
          "type": "uint256"
        }
      ],
      "stateMutability": "view",
      "type": "function"
    },
    {
      "inputs": [],
      "name": "getDefaultRoyaltyInfo",
      "outputs": [
        {
          "internalType": "address",
          "name": "",
          "type": "address"
        },
        {
          "internalType": "uint16",
          "name": "",
          "type": "uint16"
        }
      ],
      "stateMutability": "view",
      "type": "function"
    },
    {
      "inputs": [
        {
          "internalType": "uint256",
          "name": "_tokenId",
          "type": "uint256"
        }
      ],
      "name": "getRoyaltyInfoForToken",
      "outputs": [
        {
          "internalType": "address",
          "name": "",
          "type": "address"
        },
        {
          "internalType": "uint16",
          "name": "",
          "type": "uint16"
        }
      ],
      "stateMutability": "view",
      "type": "function"
    },
    {
      "inputs": [
        {
          "internalType": "address",
          "name": "owner",
          "type": "address"
        },
        {
          "internalType": "address",
          "name": "operator",
          "type": "address"
        }
      ],
      "name": "isApprovedForAll",
      "outputs": [
        {
          "internalType": "bool",
          "name": "",
          "type": "bool"
        }
      ],
      "stateMutability": "view",
      "type": "function"
    },
    {
      "inputs": [
        {
          "internalType": "address",
          "name": "_operator",
          "type": "address"
        },
        {
          "internalType": "uint256",
          "name": "_tokenId",
          "type": "uint256"
        }
      ],
      "name": "isApprovedOrOwner",
      "outputs": [
        {
          "internalType": "bool",
          "name": "isApprovedOrOwnerOf",
          "type": "bool"
        }
      ],
      "stateMutability": "view",
      "type": "function"
    },
    {
      "inputs": [
        {
          "internalType": "address",
          "name": "_to",
          "type": "address"
        },
        {
          "internalType": "string",
          "name": "_tokenURI",
          "type": "string"
        }
      ],
      "name": "mintTo",
      "outputs": [],
      "stateMutability": "nonpayable",
      "type": "function"
    },
    {
      "inputs": [
        {
          "internalType": "bytes[]",
          "name": "data",
          "type": "bytes[]"
        }
      ],
      "name": "multicall",
      "outputs": [
        {
          "internalType": "bytes[]",
          "name": "results",
          "type": "bytes[]"
        }
      ],
      "stateMutability": "nonpayable",
      "type": "function"
    },
    {
      "inputs": [],
      "name": "name",
      "outputs": [
        {
          "internalType": "string",
          "name": "",
          "type": "string"
        }
      ],
      "stateMutability": "view",
      "type": "function"
    },
    {
      "inputs": [],
      "name": "nextTokenIdToMint",
      "outputs": [
        {
          "internalType": "uint256",
          "name": "",
          "type": "uint256"
        }
      ],
      "stateMutability": "view",
      "type": "function"
    },
    {
      "inputs": [],
      "name": "owner",
      "outputs": [
        {
          "internalType": "address",
          "name": "",
          "type": "address"
        }
      ],
      "stateMutability": "view",
      "type": "function"
    },
    {
      "inputs": [
        {
          "internalType": "uint256",
          "name": "tokenId",
          "type": "uint256"
        }
      ],
      "name": "ownerOf",
      "outputs": [
        {
          "internalType": "address",
          "name": "",
          "type": "address"
        }
      ],
      "stateMutability": "view",
      "type": "function"
    },
    {
      "inputs": [
        {
          "internalType": "uint256",
          "name": "tokenId",
          "type": "uint256"
        },
        {
          "internalType": "uint256",
          "name": "salePrice",
          "type": "uint256"
        }
      ],
      "name": "royaltyInfo",
      "outputs": [
        {
          "internalType": "address",
          "name": "receiver",
          "type": "address"
        },
        {
          "internalType": "uint256",
          "name": "royaltyAmount",
          "type": "uint256"
        }
      ],
      "stateMutability": "view",
      "type": "function"
    },
    {
      "inputs": [
        {
          "internalType": "address",
          "name": "from",
          "type": "address"
        },
        {
          "internalType": "address",
          "name": "to",
          "type": "address"
        },
        {
          "internalType": "uint256",
          "name": "tokenId",
          "type": "uint256"
        }
      ],
      "name": "safeTransferFrom",
      "outputs": [],
      "stateMutability": "nonpayable",
      "type": "function"
    },
    {
      "inputs": [
        {
          "internalType": "address",
          "name": "from",
          "type": "address"
        },
        {
          "internalType": "address",
          "name": "to",
          "type": "address"
        },
        {
          "internalType": "uint256",
          "name": "tokenId",
          "type": "uint256"
        },
        {
          "internalType": "bytes",
          "name": "_data",
          "type": "bytes"
        }
      ],
      "name": "safeTransferFrom",
      "outputs": [],
      "stateMutability": "nonpayable",
      "type": "function"
    },
    {
      "inputs": [
        {
          "internalType": "address",
          "name": "operator",
          "type": "address"
        },
        {
          "internalType": "bool",
          "name": "approved",
          "type": "bool"
        }
      ],
      "name": "setApprovalForAll",
      "outputs": [],
      "stateMutability": "nonpayable",
      "type": "function"
    },
    {
      "inputs": [
        {
          "internalType": "string",
          "name": "_uri",
          "type": "string"
        }
      ],
      "name": "setContractURI",
      "outputs": [],
      "stateMutability": "nonpayable",
      "type": "function"
    },
    {
      "inputs": [
        {
          "internalType": "address",
          "name": "_royaltyRecipient",
          "type": "address"
        },
        {
          "internalType": "uint256",
          "name": "_royaltyBps",
          "type": "uint256"
        }
      ],
      "name": "setDefaultRoyaltyInfo",
      "outputs": [],
      "stateMutability": "nonpayable",
      "type": "function"
    },
    {
      "inputs": [
        {
          "internalType": "address",
          "name": "_newOwner",
          "type": "address"
        }
      ],
      "name": "setOwner",
      "outputs": [],
      "stateMutability": "nonpayable",
      "type": "function"
    },
    {
      "inputs": [
        {
          "internalType": "uint256",
          "name": "_tokenId",
          "type": "uint256"
        },
        {
          "internalType": "address",
          "name": "_recipient",
          "type": "address"
        },
        {
          "internalType": "uint256",
          "name": "_bps",
          "type": "uint256"
        }
      ],
      "name": "setRoyaltyInfoForToken",
      "outputs": [],
      "stateMutability": "nonpayable",
      "type": "function"
    },
    {
      "inputs": [
        {
          "internalType": "bytes4",
          "name": "interfaceId",
          "type": "bytes4"
        }
      ],
      "name": "supportsInterface",
      "outputs": [
        {
          "internalType": "bool",
          "name": "",
          "type": "bool"
        }
      ],
      "stateMutability": "view",
      "type": "function"
    },
    {
      "inputs": [],
      "name": "symbol",
      "outputs": [
        {
          "internalType": "string",
          "name": "",
          "type": "string"
        }
      ],
      "stateMutability": "view",
      "type": "function"
    },
    {
      "inputs": [
        {
          "internalType": "uint256",
          "name": "_tokenId",
          "type": "uint256"
        }
      ],
      "name": "tokenURI",
      "outputs": [
        {
          "internalType": "string",
          "name": "",
          "type": "string"
        }
      ],
      "stateMutability": "view",
      "type": "function"
    },
    {
      "inputs": [],
      "name": "totalSupply",
      "outputs": [
        {
          "internalType": "uint256",
          "name": "",
          "type": "uint256"
        }
      ],
      "stateMutability": "view",
      "type": "function"
    },
    {
      "inputs": [
        {
          "internalType": "address",
          "name": "from",
          "type": "address"
        },
        {
          "internalType": "address",
          "name": "to",
          "type": "address"
        },
        {
          "internalType": "uint256",
          "name": "tokenId",
          "type": "uint256"
        }
      ],
      "name": "transferFrom",
      "outputs": [],
      "stateMutability": "nonpayable",
      "type": "function"
    }
  ],
  "bytecode": "0x60806040523480156200001157600080fd5b5060405162002a3738038062002a37833981016040819052620000349162000264565b83836002620000448382620003a6565b506003620000538282620003a6565b50506000805550620000658562000085565b6200007a826001600160801b038316620000d7565b505050505062000472565b600980546001600160a01b038381166001600160a01b0319831681179093556040519116919082907f8292fce18fa69edf4db7b94ea2e58241df0ae57f97e0a6c9b29067028bf92d7690600090a35050565b612710811115620001205760405162461bcd60e51b815260206004820152600f60248201526e45786365656473206d61782062707360881b604482015260640160405180910390fd5b600a80546001600160a01b0384166001600160b01b03199091168117600160a01b61ffff851602179091556040518281527f90d7ec04bcb8978719414f82e52e4cb651db41d0e6f8cea6118c2191e6183adb9060200160405180910390a25050565b80516001600160a01b03811681146200019a57600080fd5b919050565b634e487b7160e01b600052604160045260246000fd5b600082601f830112620001c757600080fd5b81516001600160401b0380821115620001e457620001e46200019f565b604051601f8301601f19908116603f011681019082821181831017156200020f576200020f6200019f565b816040528381526020925086838588010111156200022c57600080fd5b600091505b8382101562000250578582018301518183018401529082019062000231565b600093810190920192909252949350505050565b600080600080600060a086880312156200027d57600080fd5b620002888662000182565b60208701519095506001600160401b0380821115620002a657600080fd5b620002b489838a01620001b5565b95506040880151915080821115620002cb57600080fd5b50620002da88828901620001b5565b935050620002eb6060870162000182565b60808701519092506001600160801b03811681146200030957600080fd5b809150509295509295909350565b600181811c908216806200032c57607f821691505b6020821081036200034d57634e487b7160e01b600052602260045260246000fd5b50919050565b601f821115620003a157600081815260208120601f850160051c810160208610156200037c5750805b601f850160051c820191505b818110156200039d5782815560010162000388565b5050505b505050565b81516001600160401b03811115620003c257620003c26200019f565b620003da81620003d3845462000317565b8462000353565b602080601f831160018114620004125760008415620003f95750858301515b600019600386901b1c1916600185901b1785556200039d565b600085815260208120601f198616915b82811015620004435788860151825594840194600190910190840162000422565b5085821015620004625787850151600019600388901b60f8161c191681555b5050505050600190811b01905550565b6125b580620004826000396000f3fe608060405234801561001057600080fd5b50600436106101ef5760003560e01c80636352211e1161010f5780639bcf7a15116100a2578063b88d4fde11610071578063b88d4fde14610482578063c87b56dd14610495578063e8a3d485146104a8578063e985e9c5146104b057600080fd5b80639bcf7a151461041e578063a22cb46514610431578063ac9650d814610444578063b24f2d391461046457600080fd5b806383040532116100de57806383040532146103cf5780638da5cb5b146103f2578063938e3d7b1461040357806395d89b411461041657600080fd5b80636352211e1461038e57806363b45e2d146103a157806370a08231146103a9578063754a81d9146103bc57600080fd5b80632419f51b1161018757806342966c681161015657806342966c6814610320578063430c2081146103335780634cc157df14610346578063600dd5ea1461037b57600080fd5b80632419f51b146102c05780632a55205a146102d35780633b1475a71461030557806342842e0e1461030d57600080fd5b8063095ea7b3116101c3578063095ea7b31461027157806313af40351461028457806318160ddd1461029757806323b872dd146102ad57600080fd5b806275a317146101f457806301ffc9a71461020957806306fdde0314610231578063081812fc14610246575b600080fd5b610207610202366004611dde565b6104ec565b005b61021c610217366004611e41565b610570565b60405190151581526020015b60405180910390f35b6102396105dd565b6040516102289190611eae565b610259610254366004611ec1565b61066f565b6040516001600160a01b039091168152602001610228565b61020761027f366004611eda565b6106b3565b610207610292366004611f04565b610739565b600154600054035b604051908152602001610228565b6102076102bb366004611f1f565b610769565b61029f6102ce366004611ec1565b610774565b6102e66102e1366004611f5b565b6107e2565b604080516001600160a01b039093168352602083019190915201610228565b60005461029f565b61020761031b366004611f1f565b61081f565b61020761032e366004611ec1565b61083a565b61021c610341366004611eda565b610845565b610359610354366004611ec1565b6108c4565b604080516001600160a01b03909316835261ffff909116602083015201610228565b610207610389366004611eda565b61092f565b61025961039c366004611ec1565b61095d565b600c5461029f565b61029f6103b7366004611f04565b61096f565b6102076103ca366004611f7d565b6109bd565b61021c6103dd366004611ec1565b600e6020526000908152604090205460ff1681565b6009546001600160a01b0316610259565b610207610411366004611ffa565b610a31565b610239610a5e565b61020761042c36600461202e565b610a6d565b61020761043f366004612053565b610a9c565b61045761045236600461208f565b610b31565b6040516102289190612103565b600a546001600160a01b03811690600160a01b900461ffff16610359565b610207610490366004612165565b610c25565b6102396104a3366004611ec1565b610c69565b610239610d57565b61021c6104be3660046121c0565b6001600160a01b03918216600090815260076020908152604080832093909416825291909152205460ff1690565b6104f4610de5565b61053f5760405162461bcd60e51b81526020600482015260176024820152762737ba1030baba3437b934bd32b2103a379036b4b73a1760491b60448201526064015b60405180910390fd5b61055161054b60005490565b82610e12565b61056c82600160405180602001604052806000815250610e84565b5050565b60006301ffc9a760e01b6001600160e01b0319831614806105a157506380ac58cd60e01b6001600160e01b03198316145b806105bc5750635b5e139f60e01b6001600160e01b03198316145b806105d757506001600160e01b0319821663152a902d60e11b145b92915050565b6060600280546105ec906121f3565b80601f0160208091040260200160405190810160405280929190818152602001828054610618906121f3565b80156106655780601f1061063a57610100808354040283529160200191610665565b820191906000526020600020905b81548152906001019060200180831161064857829003601f168201915b5050505050905090565b600061067a82611027565b610697576040516333d1c03960e21b815260040160405180910390fd5b506000908152600660205260409020546001600160a01b031690565b60006106be8261095d565b9050806001600160a01b0316836001600160a01b0316036106f25760405163250fdee360e21b815260040160405180910390fd5b336001600160a01b038216146107295761070c81336104be565b610729576040516367d9dca160e11b815260040160405180910390fd5b610734838383611052565b505050565b610741610de5565b61075d5760405162461bcd60e51b81526004016105369061222d565b610766816110ae565b50565b610734838383611100565b600061077f600c5490565b82106107bd5760405162461bcd60e51b815260206004820152600d60248201526c092dcecc2d8d2c840d2dcc8caf609b1b6044820152606401610536565b600c82815481106107d0576107d0612255565b90600052602060002001549050919050565b6000806000806107f1866108c4565b90945084925061ffff16905061271061080a8287612281565b61081491906122ae565b925050509250929050565b61073483838360405180602001604052806000815250610c25565b6107668160016112db565b6000806108518361095d565b9050806001600160a01b0316846001600160a01b0316148061089857506001600160a01b0380821660009081526007602090815260408083209388168352929052205460ff165b806108bc5750836001600160a01b03166108b18461066f565b6001600160a01b0316145b949350505050565b6000818152600b60209081526040808320815180830190925280546001600160a01b03168083526001909101549282019290925282911561090b5780516020820151610925565b600a546001600160a01b03811690600160a01b900461ffff165b9250925050915091565b610937610de5565b6109535760405162461bcd60e51b81526004016105369061222d565b61056c828261148e565b600061096882611534565b5192915050565b60006001600160a01b038216610998576040516323d3ad8160e21b815260040160405180910390fd5b506001600160a01b03166000908152600560205260409020546001600160401b031690565b6109c5610de5565b610a0b5760405162461bcd60e51b81526020600482015260176024820152762737ba1030baba3437b934bd32b2103a379036b4b73a1760491b6044820152606401610536565b610a1e610a1760005490565b848461164e565b5050610a2b848483610e84565b50505050565b610a39610de5565b610a555760405162461bcd60e51b81526004016105369061222d565b610766816116b2565b6060600380546105ec906121f3565b610a75610de5565b610a915760405162461bcd60e51b81526004016105369061222d565b61073483838361178e565b336001600160a01b03831603610ac55760405163b06307db60e01b815260040160405180910390fd5b3360008181526007602090815260408083206001600160a01b03871680855290835292819020805460ff191686151590811790915590519081529192917f17307eab39ab6107e8899845ad3d59bd9653f200f220920489ca2b5937696c31910160405180910390a35050565b6060816001600160401b03811115610b4b57610b4b611d3c565b604051908082528060200260200182016040528015610b7e57816020015b6060815260200190600190039081610b695790505b50905060005b82811015610c1e57610bee30858584818110610ba257610ba2612255565b9050602002810190610bb491906122c2565b8080601f01602080910402602001604051908101604052809392919081815260200183838082843760009201919091525061185792505050565b828281518110610c0057610c00612255565b60200260200101819052508080610c169061230f565b915050610b84565b5092915050565b610c30848484611100565b6001600160a01b0383163b15610a2b57610c4c84848484611883565b610a2b576040516368d2bf6b60e11b815260040160405180910390fd5b6000818152600f6020526040812080546060929190610c87906121f3565b80601f0160208091040260200160405190810160405280929190818152602001828054610cb3906121f3565b8015610d005780601f10610cd557610100808354040283529160200191610d00565b820191906000526020600020905b815481529060010190602001808311610ce357829003601f168201915b50505050509050600081511115610d175792915050565b6000610d228461196e565b905080610d2e85611b0a565b604051602001610d3f929190612328565b60405160208183030381529060405292505050919050565b60088054610d64906121f3565b80601f0160208091040260200160405190810160405280929190818152602001828054610d90906121f3565b8015610ddd5780601f10610db257610100808354040283529160200191610ddd565b820191906000526020600020905b815481529060010190602001808311610dc057829003601f168201915b505050505081565b6000610df96009546001600160a01b031690565b6001600160a01b0316336001600160a01b031614905090565b6000828152600f602052604090208054610e2b906121f3565b159050610e6c5760405162461bcd60e51b815260206004820152600f60248201526e15549248185b1c9958591e481cd95d608a1b6044820152606401610536565b6000828152600f6020526040902061073482826123a5565b6000546001600160a01b038416610ead57604051622e076360e81b815260040160405180910390fd5b82600003610ece5760405163b562e8dd60e01b815260040160405180910390fd5b6001600160a01b038416600081815260056020908152604080832080546fffffffffffffffffffffffffffffffff1981166001600160401b038083168b0181169182176801000000000000000067ffffffffffffffff1990941690921783900481168b01811690920217909155858452600490925290912080546001600160e01b0319168317600160a01b42909316929092029190911790558190818501903b15610fe4575b60405182906001600160a01b03881690600090600080516020612560833981519152908290a4610fad6000878480600101955087611883565b610fca576040516368d2bf6b60e11b815260040160405180910390fd5b808210610f74578260005414610fdf57600080fd5b611017565b5b6040516001830192906001600160a01b03881690600090600080516020612560833981519152908290a4808210610fe5575b506000908155610a2b9085838684565b60008054821080156105d7575050600090815260046020526040902054600160e01b900460ff161590565b60008281526006602052604080822080546001600160a01b0319166001600160a01b0387811691821790925591518593918516917f8c5be1e5ebec7d5bd14f71427d1e84f3dd0314c0f7b2291e5b200ac8c7c3b92591a4505050565b600980546001600160a01b038381166001600160a01b0319831681179093556040519116919082907f8292fce18fa69edf4db7b94ea2e58241df0ae57f97e0a6c9b29067028bf92d7690600090a35050565b600061110b82611534565b9050836001600160a01b031681600001516001600160a01b0316146111425760405162a1148160e81b815260040160405180910390fd5b6000336001600160a01b0386161480611160575061116085336104be565b8061117b5750336111708461066f565b6001600160a01b0316145b90508061119b57604051632ce44b5f60e11b815260040160405180910390fd5b6001600160a01b0384166111c257604051633a954ecd60e21b815260040160405180910390fd5b6111ce60008487611052565b6001600160a01b038581166000908152600560209081526040808320805467ffffffffffffffff198082166001600160401b0392831660001901831617909255898616808652838620805493841693831660019081018416949094179055898652600490945282852080546001600160e01b031916909417600160a01b429092169190910217835587018084529220805491939091166112a25760005482146112a257805460208601516001600160401b0316600160a01b026001600160e01b03199091166001600160a01b038a16171781555b50505082846001600160a01b0316866001600160a01b031660008051602061256083398151915260405160405180910390a45050505050565b60006112e683611534565b8051909150821561134c576000336001600160a01b038316148061130f575061130f82336104be565b8061132a57503361131f8661066f565b6001600160a01b0316145b90508061134a57604051632ce44b5f60e11b815260040160405180910390fd5b505b61135860008583611052565b6001600160a01b0380821660008181526005602090815260408083208054600160801b6000196001600160401b0380841691909101811667ffffffffffffffff198416811783900482166001908101831690930277ffffffffffffffff0000000000000000ffffffffffffffff19909416179290921783558b86526004909452828520805460ff60e01b1942909316600160a01b026001600160e01b03199091169097179690961716600160e01b17855591890180845292208054919490911661145657600054821461145657805460208701516001600160401b0316600160a01b026001600160e01b03199091166001600160a01b038716171781555b5050604051869250600091506001600160a01b03841690600080516020612560833981519152908390a4505060018054810190555050565b6127108111156114d25760405162461bcd60e51b815260206004820152600f60248201526e45786365656473206d61782062707360881b6044820152606401610536565b600a80546001600160a01b0384166001600160b01b03199091168117600160a01b61ffff851602179091556040518281527f90d7ec04bcb8978719414f82e52e4cb651db41d0e6f8cea6118c2191e6183adb9060200160405180910390a25050565b60408051606081018252600080825260208201819052918101919091528160005481101561163557600081815260046020908152604091829020825160608101845290546001600160a01b0381168252600160a01b81046001600160401b031692820192909252600160e01b90910460ff161515918101829052906116335780516001600160a01b0316156115ca579392505050565b5060001901600081815260046020908152604091829020825160608101845290546001600160a01b038116808352600160a01b82046001600160401b031693830193909352600160e01b900460ff161515928101929092521561162e579392505050565b6115ca565b505b604051636f96cda160e11b815260040160405180910390fd5b60008061165b8486612464565b600c8054600181019091557fdf6966c971051c3d54ec59162606531493a51404a002842f56009d7e5cf4a8c7018190556000818152600d602052604090209092508291506116a984826123a5565b50935093915050565b6000600880546116c1906121f3565b80601f01602080910402602001604051908101604052809291908181526020018280546116ed906121f3565b801561173a5780601f1061170f5761010080835404028352916020019161173a565b820191906000526020600020905b81548152906001019060200180831161171d57829003601f168201915b50505050509050816008908161175091906123a5565b507fc9c7c3fe08b88b4df9d4d47ef47d2c43d55c025a0ba88ca442580ed9e7348a168183604051611782929190612477565b60405180910390a15050565b6127108111156117d25760405162461bcd60e51b815260206004820152600f60248201526e45786365656473206d61782062707360881b6044820152606401610536565b6040805180820182526001600160a01b0384811680835260208084018681526000898152600b8352869020945185546001600160a01b031916941693909317845591516001909301929092559151838152909185917f7365cf4122f072a3365c20d54eff9b38d73c096c28e1892ec8f5b0e403a0f12d910160405180910390a3505050565b606061187c838360405180606001604052806027815260200161253960279139611c0a565b9392505050565b604051630a85bd0160e11b81526000906001600160a01b0385169063150b7a02906118b89033908990889088906004016124a5565b6020604051808303816000875af19250505080156118f3575060408051601f3d908101601f191682019092526118f0918101906124d8565b60015b611951573d808015611921576040519150601f19603f3d011682016040523d82523d6000602084013e611926565b606091505b508051600003611949576040516368d2bf6b60e11b815260040160405180910390fd5b805181602001fd5b6001600160e01b031916630a85bd0160e11b149050949350505050565b6060600061197b600c5490565b90506000600c8054806020026020016040519081016040528092919081815260200182805480156119cb57602002820191906000526020600020905b8154815260200190600101908083116119b7575b5050505050905060005b82811015611acf578181815181106119ef576119ef612255565b6020026020010151851015611abd57600d6000838381518110611a1457611a14612255565b602002602001015181526020019081526020016000208054611a35906121f3565b80601f0160208091040260200160405190810160405280929190818152602001828054611a61906121f3565b8015611aae5780601f10611a8357610100808354040283529160200191611aae565b820191906000526020600020905b815481529060010190602001808311611a9157829003601f168201915b50505050509350505050919050565b611ac8600182612464565b90506119d5565b5060405162461bcd60e51b815260206004820152600f60248201526e125b9d985b1a59081d1bdad95b9259608a1b6044820152606401610536565b606081600003611b315750506040805180820190915260018152600360fc1b602082015290565b8160005b8115611b5b5780611b458161230f565b9150611b549050600a836122ae565b9150611b35565b6000816001600160401b03811115611b7557611b75611d3c565b6040519080825280601f01601f191660200182016040528015611b9f576020820181803683370190505b5090505b84156108bc57611bb46001836124f5565b9150611bc1600a86612508565b611bcc906030612464565b60f81b818381518110611be157611be1612255565b60200101906001600160f81b031916908160001a905350611c03600a866122ae565b9450611ba3565b60606001600160a01b0384163b611c725760405162461bcd60e51b815260206004820152602660248201527f416464726573733a2064656c65676174652063616c6c20746f206e6f6e2d636f6044820152651b9d1c9858dd60d21b6064820152608401610536565b600080856001600160a01b031685604051611c8d919061251c565b600060405180830381855af49150503d8060008114611cc8576040519150601f19603f3d011682016040523d82523d6000602084013e611ccd565b606091505b5091509150611cdd828286611ce7565b9695505050505050565b60608315611cf657508161187c565b825115611d065782518084602001fd5b8160405162461bcd60e51b81526004016105369190611eae565b80356001600160a01b0381168114611d3757600080fd5b919050565b634e487b7160e01b600052604160045260246000fd5b600082601f830112611d6357600080fd5b81356001600160401b0380821115611d7d57611d7d611d3c565b604051601f8301601f19908116603f01168101908282118183101715611da557611da5611d3c565b81604052838152866020858801011115611dbe57600080fd5b836020870160208301376000602085830101528094505050505092915050565b60008060408385031215611df157600080fd5b611dfa83611d20565b915060208301356001600160401b03811115611e1557600080fd5b611e2185828601611d52565b9150509250929050565b6001600160e01b03198116811461076657600080fd5b600060208284031215611e5357600080fd5b813561187c81611e2b565b60005b83811015611e79578181015183820152602001611e61565b50506000910152565b60008151808452611e9a816020860160208601611e5e565b601f01601f19169290920160200192915050565b60208152600061187c6020830184611e82565b600060208284031215611ed357600080fd5b5035919050565b60008060408385031215611eed57600080fd5b611ef683611d20565b946020939093013593505050565b600060208284031215611f1657600080fd5b61187c82611d20565b600080600060608486031215611f3457600080fd5b611f3d84611d20565b9250611f4b60208501611d20565b9150604084013590509250925092565b60008060408385031215611f6e57600080fd5b50508035926020909101359150565b60008060008060808587031215611f9357600080fd5b611f9c85611d20565b93506020850135925060408501356001600160401b0380821115611fbf57600080fd5b611fcb88838901611d52565b93506060870135915080821115611fe157600080fd5b50611fee87828801611d52565b91505092959194509250565b60006020828403121561200c57600080fd5b81356001600160401b0381111561202257600080fd5b6108bc84828501611d52565b60008060006060848603121561204357600080fd5b83359250611f4b60208501611d20565b6000806040838503121561206657600080fd5b61206f83611d20565b91506020830135801515811461208457600080fd5b809150509250929050565b600080602083850312156120a257600080fd5b82356001600160401b03808211156120b957600080fd5b818501915085601f8301126120cd57600080fd5b8135818111156120dc57600080fd5b8660208260051b85010111156120f157600080fd5b60209290920196919550909350505050565b6000602080830181845280855180835260408601915060408160051b870101925083870160005b8281101561215857603f19888603018452612146858351611e82565b9450928501929085019060010161212a565b5092979650505050505050565b6000806000806080858703121561217b57600080fd5b61218485611d20565b935061219260208601611d20565b92506040850135915060608501356001600160401b038111156121b457600080fd5b611fee87828801611d52565b600080604083850312156121d357600080fd5b6121dc83611d20565b91506121ea60208401611d20565b90509250929050565b600181811c9082168061220757607f821691505b60208210810361222757634e487b7160e01b600052602260045260246000fd5b50919050565b6020808252600e908201526d139bdd08185d5d1a1bdc9a5e995960921b604082015260600190565b634e487b7160e01b600052603260045260246000fd5b634e487b7160e01b600052601160045260246000fd5b80820281158282048414176105d7576105d761226b565b634e487b7160e01b600052601260045260246000fd5b6000826122bd576122bd612298565b500490565b6000808335601e198436030181126122d957600080fd5b8301803591506001600160401b038211156122f357600080fd5b60200191503681900382131561230857600080fd5b9250929050565b6000600182016123215761232161226b565b5060010190565b6000835161233a818460208801611e5e565b83519083019061234e818360208801611e5e565b01949350505050565b601f82111561073457600081815260208120601f850160051c8101602086101561237e5750805b601f850160051c820191505b8181101561239d5782815560010161238a565b505050505050565b81516001600160401b038111156123be576123be611d3c565b6123d2816123cc84546121f3565b84612357565b602080601f83116001811461240757600084156123ef5750858301515b600019600386901b1c1916600185901b17855561239d565b600085815260208120601f198616915b8281101561243657888601518255948401946001909101908401612417565b50858210156124545787850151600019600388901b60f8161c191681555b5050505050600190811b01905550565b808201808211156105d7576105d761226b565b60408152600061248a6040830185611e82565b828103602084015261249c8185611e82565b95945050505050565b6001600160a01b0385811682528416602082015260408101839052608060608201819052600090611cdd90830184611e82565b6000602082840312156124ea57600080fd5b815161187c81611e2b565b818103818111156105d7576105d761226b565b60008261251757612517612298565b500690565b6000825161252e818460208701611e5e565b919091019291505056fe416464726573733a206c6f772d6c6576656c2064656c65676174652063616c6c206661696c6564ddf252ad1be2c89b69c2b068fc378daa952ba7f163c4a11628f55a4df523b3efa2646970667358221220c2bbc731fceb56fdd229b101fc56b8c8c87195bd4d474167b270c32ac46f3abd64736f6c63430008110033",
  "linkReferences": {},
  "deployedLinkReferences": {}
}