{
  "_format": "hh-sol-artifact-1",
  "contractName": "Multicall",
  "sourceName": "@thirdweb-dev/contracts/extension/Multicall.sol",
  "abi": [
    {
      "inputs": [
        {
          "internalType": "bytes[]",
          "name": "data",
          "type": "bytes[]"
        }
      ],
      "name": "multicall",
      "outputs": [
        {
          "internalType": "bytes[]",
          "name": "results",
          "type": "bytes[]"
        }
      ],
      "stateMutability": "nonpayable",
      "type": "function"
    }
  ],
  "bytecode": "0x608060405234801561001057600080fd5b506104e9806100206000396000f3fe608060405234801561001057600080fd5b506004361061002b5760003560e01c8063ac9650d814610030575b600080fd5b61004361003e366004610295565b610059565b604051610050919061035a565b60405180910390f35b60608167ffffffffffffffff811115610074576100746103bc565b6040519080825280602002602001820160405280156100a757816020015b60608152602001906001900390816100925790505b50905060005b8281101561014757610117308585848181106100cb576100cb6103d2565b90506020028101906100dd91906103e8565b8080601f01602080910402602001604051908101604052809392919081815260200183838082843760009201919091525061014e92505050565b828281518110610129576101296103d2565b6020026020010181905250808061013f90610436565b9150506100ad565b5092915050565b6060610173838360405180606001604052806027815260200161048d6027913961017a565b9392505050565b60606001600160a01b0384163b6101e75760405162461bcd60e51b815260206004820152602660248201527f416464726573733a2064656c65676174652063616c6c20746f206e6f6e2d636f6044820152651b9d1c9858dd60d21b60648201526084015b60405180910390fd5b600080856001600160a01b031685604051610202919061045d565b600060405180830381855af49150503d806000811461023d576040519150601f19603f3d011682016040523d82523d6000602084013e610242565b606091505b509150915061025282828661025c565b9695505050505050565b6060831561026b575081610173565b82511561027b5782518084602001fd5b8160405162461bcd60e51b81526004016101de9190610479565b600080602083850312156102a857600080fd5b823567ffffffffffffffff808211156102c057600080fd5b818501915085601f8301126102d457600080fd5b8135818111156102e357600080fd5b8660208260051b85010111156102f857600080fd5b60209290920196919550909350505050565b60005b8381101561032557818101518382015260200161030d565b50506000910152565b6000815180845261034681602086016020860161030a565b601f01601f19169290920160200192915050565b6000602080830181845280855180835260408601915060408160051b870101925083870160005b828110156103af57603f1988860301845261039d85835161032e565b94509285019290850190600101610381565b5092979650505050505050565b634e487b7160e01b600052604160045260246000fd5b634e487b7160e01b600052603260045260246000fd5b6000808335601e198436030181126103ff57600080fd5b83018035915067ffffffffffffffff82111561041a57600080fd5b60200191503681900382131561042f57600080fd5b9250929050565b60006001820161045657634e487b7160e01b600052601160045260246000fd5b5060010190565b6000825161046f81846020870161030a565b9190910192915050565b602081526000610173602083018461032e56fe416464726573733a206c6f772d6c6576656c2064656c65676174652063616c6c206661696c6564a26469706673582212200a395a8fc6911e0888fed7db3b15145c214ee9bdb00214ee11f62a57fc4c647764736f6c63430008110033",
  "linkReferences": {},
  "deployedLinkReferences": {}
}